{
  "address": "0xeA655CCD1B54419310cdA814a36D0E750ebf4e95",
  "abi": [
    {
      "anonymous": false,
      "inputs": [
        {
          "indexed": true,
          "internalType": "address",
          "name": "_address",
          "type": "address"
        }
      ],
      "name": "AddressAdded",
      "type": "event"
    },
    {
      "anonymous": false,
      "inputs": [
        {
          "indexed": true,
          "internalType": "address",
          "name": "_address",
          "type": "address"
        }
      ],
      "name": "AddressRemoved",
      "type": "event"
    },
    {
      "anonymous": false,
      "inputs": [],
      "name": "AllAddressesCleared",
      "type": "event"
    },
    {
      "anonymous": false,
      "inputs": [
        {
          "indexed": true,
          "internalType": "address",
          "name": "previousOwner",
          "type": "address"
        },
        {
          "indexed": true,
          "internalType": "address",
          "name": "newOwner",
          "type": "address"
        }
      ],
      "name": "OwnershipTransferred",
      "type": "event"
    },
    {
      "inputs": [
        {
          "internalType": "address[]",
          "name": "_addresses",
          "type": "address[]"
        }
      ],
      "name": "addAddresses",
      "outputs": [],
      "stateMutability": "nonpayable",
      "type": "function"
    },
    {
      "inputs": [],
      "name": "addressType",
      "outputs": [
        {
          "internalType": "string",
          "name": "",
          "type": "string"
        }
      ],
      "stateMutability": "view",
      "type": "function"
    },
    {
      "inputs": [
        {
          "internalType": "address",
          "name": "to",
          "type": "address"
        },
        {
          "internalType": "uint256",
          "name": "amount",
          "type": "uint256"
        },
        {
          "internalType": "address",
          "name": "controlledToken",
          "type": "address"
        },
        {
          "internalType": "address",
          "name": "referrer",
          "type": "address"
        }
      ],
      "name": "beforeTokenMint",
      "outputs": [],
      "stateMutability": "nonpayable",
      "type": "function"
    },
    {
      "inputs": [
        {
          "internalType": "address",
          "name": "from",
          "type": "address"
        },
        {
          "internalType": "address",
          "name": "to",
          "type": "address"
        },
        {
          "internalType": "uint256",
          "name": "amount",
          "type": "uint256"
        },
        {
          "internalType": "address",
          "name": "controlledToken",
          "type": "address"
        }
      ],
      "name": "beforeTokenTransfer",
      "outputs": [],
      "stateMutability": "nonpayable",
      "type": "function"
    },
    {
      "inputs": [],
      "name": "clearAll",
      "outputs": [],
      "stateMutability": "nonpayable",
      "type": "function"
    },
    {
      "inputs": [
        {
          "internalType": "address",
          "name": "_addr",
          "type": "address"
        }
      ],
      "name": "contains",
      "outputs": [
        {
          "internalType": "bool",
          "name": "",
          "type": "bool"
        }
      ],
      "stateMutability": "nonpayable",
      "type": "function"
    },
    {
      "inputs": [],
      "name": "end",
      "outputs": [
        {
          "internalType": "address",
          "name": "",
          "type": "address"
        }
      ],
      "stateMutability": "view",
      "type": "function"
    },
    {
      "inputs": [],
      "name": "getAddresses",
      "outputs": [
        {
          "internalType": "address[]",
          "name": "",
          "type": "address[]"
        }
      ],
      "stateMutability": "view",
      "type": "function"
    },
    {
      "inputs": [
        {
          "internalType": "address",
          "name": "_owner",
          "type": "address"
        }
      ],
      "name": "initialize",
      "outputs": [],
      "stateMutability": "nonpayable",
      "type": "function"
    },
    {
      "inputs": [
        {
          "internalType": "address",
          "name": "current",
          "type": "address"
        }
      ],
      "name": "next",
      "outputs": [
        {
          "internalType": "address",
          "name": "",
          "type": "address"
        }
      ],
      "stateMutability": "view",
      "type": "function"
    },
    {
      "inputs": [],
      "name": "owner",
      "outputs": [
        {
          "internalType": "address",
          "name": "",
          "type": "address"
        }
      ],
      "stateMutability": "view",
      "type": "function"
    },
    {
      "inputs": [
        {
          "internalType": "address",
          "name": "_previousContract",
          "type": "address"
        },
        {
          "internalType": "address",
          "name": "_address",
          "type": "address"
        }
      ],
      "name": "removeAddress",
      "outputs": [],
      "stateMutability": "nonpayable",
      "type": "function"
    },
    {
      "inputs": [],
      "name": "renounceOwnership",
      "outputs": [],
      "stateMutability": "nonpayable",
      "type": "function"
    },
    {
      "inputs": [],
      "name": "start",
      "outputs": [
        {
          "internalType": "address",
          "name": "",
          "type": "address"
        }
      ],
      "stateMutability": "view",
      "type": "function"
    },
    {
      "inputs": [
        {
          "internalType": "bytes4",
          "name": "interfaceId",
          "type": "bytes4"
        }
      ],
      "name": "supportsInterface",
      "outputs": [
        {
          "internalType": "bool",
          "name": "",
          "type": "bool"
        }
      ],
      "stateMutability": "view",
      "type": "function"
    },
    {
      "inputs": [
        {
          "internalType": "address",
          "name": "newOwner",
          "type": "address"
        }
      ],
      "name": "transferOwnership",
      "outputs": [],
      "stateMutability": "nonpayable",
      "type": "function"
    }
  ],
  "transactionHash": "0x6a31015dded059644e2bbf7cf387458a68f0ccc07c02125a8456aa651a7287df",
  "args": [],
  "solcInputHash": "6a07f879d4074b26c0207e6d575505c4",
  "bytecode": "0x608060405234801561001057600080fd5b506113eb806100206000396000f3fe608060405234801561001057600080fd5b50600436106101005760003560e01c8063ab73e31611610097578063c4d66de811610066578063c4d66de8146103ad578063ebb689a1146103d3578063efbe1c1c146103db578063f2fde38b146103e357610100565b8063ab73e31614610315578063b22109571461033b578063b6fac15a14610377578063be9a6555146103a557610100565b80635dbe47e8116100d35780635dbe47e81461026b578063715018a6146102915780638da5cb5b14610299578063a39fac12146102bd57610100565b806301ffc9a7146101055780633628731c146101405780634d7f3db0146101b2578063506cd107146101ee575b600080fd5b61012c6004803603602081101561011b57600080fd5b50356001600160e01b031916610409565b604080519115158252519081900360200190f35b6101b06004803603602081101561015657600080fd5b81019060208101813564010000000081111561017157600080fd5b82018360208201111561018357600080fd5b803590602001918460208302840111640100000000831117156101a557600080fd5b509092509050610443565b005b6101b0600480360360808110156101c857600080fd5b506001600160a01b0381358116916020810135916040820135811691606001351661053d565b6101f661060a565b6040805160208082528351818301528351919283929083019185019080838360005b83811015610230578181015183820152602001610218565b50505050905090810190601f16801561025d5780820380516001836020036101000a031916815260200191505b509250505060405180910390f35b61012c6004803603602081101561028157600080fd5b50356001600160a01b0316610698565b6101b06106a5565b6102a1610751565b604080516001600160a01b039092168252519081900360200190f35b6102c5610760565b60408051602080825283518183015283519192839290830191858101910280838360005b838110156103015781810151838201526020016102e9565b505050509050019250505060405180910390f35b6102a16004803603602081101561032b57600080fd5b50356001600160a01b0316610771565b6101b06004803603608081101561035157600080fd5b506001600160a01b0381358116916020810135821691604082013591606001351661077e565b6101b06004803603604081101561038d57600080fd5b506001600160a01b0381358116916020013516610844565b6102a16108ea565b6101b0600480360360208110156103c357600080fd5b50356001600160a01b03166108f6565b6101b06109c7565b6102a1610a5e565b6101b0600480360360208110156103f957600080fd5b50356001600160a01b0316610a6a565b60006001600160e01b031982166301ffc9a760e01b148061043d57506001600160e01b03198216600162a1cb1960e01b0319145b92915050565b61044b610b6d565b6001600160a01b031661045c610751565b6001600160a01b0316146104a5576040805162461bcd60e51b81526020600482018190526024820152600080516020611396833981519152604482015290519081900360640190fd5b60005b81811015610538576104df8383838181106104bf57fe5b905060200201356001600160a01b03166065610b7190919063ffffffff16565b8282828181106104eb57fe5b905060200201356001600160a01b03166001600160a01b03167fa226db3f664042183ee0281230bba26cbf7b5057e50aee7f25a175ff45ce4d7f60405160405180910390a26001016104a8565b505050565b60006105496065610c85565b90505b6105566065610ca2565b6001600160a01b0316816001600160a01b03161461060357604080516304d7f3db60e41b81526001600160a01b0387811660048301526024820187905285811660448301528481166064830152915191831691634d7f3db09160848082019260009290919082900301818387803b1580156105d057600080fd5b505af11580156105e4573d6000803e3d6000fd5b505050506105fc816065610ca890919063ffffffff16565b905061054c565b5050505050565b6067805460408051602060026001851615610100026000190190941693909304601f810184900484028201840190925281815292918301828280156106905780601f1061066557610100808354040283529160200191610690565b820191906000526020600020905b81548152906001019060200180831161067357829003601f168201915b505050505081565b600061043d606583610ccb565b6106ad610b6d565b6001600160a01b03166106be610751565b6001600160a01b031614610707576040805162461bcd60e51b81526020600482018190526024820152600080516020611396833981519152604482015290519081900360640190fd5b6033546040516000916001600160a01b0316907f8be0079c531659141344cd1fd0a4f28419497f9722a3daafe3b4186f6b6457e0908390a3603380546001600160a01b0319169055565b6033546001600160a01b031690565b606061076c6065610d1d565b905090565b600061043d606583610ca8565b600061078a6065610c85565b90505b6107976065610ca2565b6001600160a01b0316816001600160a01b031614610603576040805163b221095760e01b81526001600160a01b038781166004830152868116602483015260448201869052848116606483015291519183169163b22109579160848082019260009290919082900301818387803b15801561081157600080fd5b505af1158015610825573d6000803e3d6000fd5b5050505061083d816065610ca890919063ffffffff16565b905061078d565b61084c610b6d565b6001600160a01b031661085d610751565b6001600160a01b0316146108a6576040805162461bcd60e51b81526020600482018190526024820152600080516020611396833981519152604482015290519081900360640190fd5b6108b260658383610dfd565b6040516001600160a01b038216907f24a12366c02e13fe4a9e03d86a8952e85bb74a456c16e4a18b6d8295700b74bb90600090a25050565b600061076c6065610c85565b600054610100900460ff168061090f575061090f610f19565b8061091d575060005460ff16155b6109585760405162461bcd60e51b815260040180806020018281038252602e815260200180611368602e913960400191505060405180910390fd5b600054610100900460ff16158015610983576000805460ff1961ff0019909116610100171660011790555b6109b16040518060400160405280600c81526020016b546f6b656e4661756365747360a01b81525083610f2a565b80156109c3576000805461ff00191690555b5050565b6109cf610b6d565b6001600160a01b03166109e0610751565b6001600160a01b031614610a29576040805162461bcd60e51b81526020600482018190526024820152600080516020611396833981519152604482015290519081900360640190fd5b610a336065610f59565b6040517fd2246837fc932fb127be794938f83245f3a8fc7fa8be0abfcddde9b07875d02090600090a1565b600061076c6065610ca2565b610a72610b6d565b6001600160a01b0316610a83610751565b6001600160a01b031614610acc576040805162461bcd60e51b81526020600482018190526024820152600080516020611396833981519152604482015290519081900360640190fd5b6001600160a01b038116610b115760405162461bcd60e51b81526004018080602001828103825260268152602001806113426026913960400191505060405180910390fd5b6033546040516001600160a01b038084169216907f8be0079c531659141344cd1fd0a4f28419497f9722a3daafe3b4186f6b6457e090600090a3603380546001600160a01b0319166001600160a01b0392909216919091179055565b3390565b6001600160a01b038116600114801590610b9357506001600160a01b03811615155b610bd6576040805162461bcd60e51b815260206004820152600f60248201526e496e76616c6964206164647265737360881b604482015290519081900360640190fd5b6001600160a01b0381811660009081526001840160205260409020541615610c35576040805162461bcd60e51b815260206004820152600d60248201526c105b1c9958591e481859191959609a1b604482015290519081900360640190fd5b60016000818152838201602052604080822080546001600160a01b039586168085529284208054969091166001600160a01b03199687161790559183905281549093169092179091558154019055565b60016000818152910160205260409020546001600160a01b031690565b50600190565b6001600160a01b0380821660009081526001840160205260409020541692915050565b60006001600160a01b038216600114801590610cef57506001600160a01b03821615155b8015610d1657506001600160a01b0382811660009081526001850160205260409020541615155b9392505050565b606080826000015467ffffffffffffffff81118015610d3b57600080fd5b50604051908082528060200260200182016040528015610d65578160200160208202803683370190505b50600160008181529085016020526040812054919250906001600160a01b03165b6001600160a01b03811615801590610da857506001600160a01b038116600114155b15610df45780838381518110610dba57fe5b6001600160a01b03928316602091820292909201810191909152918116600090815260018088019093526040902054929091019116610d86565b50909392505050565b6001600160a01b038116600114801590610e1f57506001600160a01b03811615155b610e62576040805162461bcd60e51b815260206004820152600f60248201526e496e76616c6964206164647265737360881b604482015290519081900360640190fd5b6001600160a01b038281166000908152600185016020526040902054811690821614610ecb576040805162461bcd60e51b8152602060048201526013602482015272496e76616c696420707265764164647265737360681b604482015290519081900360640190fd5b6001600160a01b039081166000818152600185016020526040808220805495851683529082208054959094166001600160a01b03199586161790935552805490911690558054600019019055565b6000610f2430610ff5565b15905090565b610f32610ffb565b610f3b81610a6a565b8151610f4e9060679060208501906112ae565b506109c360656110ad565b6001600081815290820160205260409020546001600160a01b03165b6001600160a01b03811615801590610f9757506001600160a01b038116600114155b15610fcd576001600160a01b039081166000908152600183016020526040902080546001600160a01b0319811690915516610f75565b50600160008181528282016020526040812080546001600160a01b0319169092179091559055565b3b151590565b600054610100900460ff16806110145750611014610f19565b80611022575060005460ff16155b61105d5760405162461bcd60e51b815260040180806020018281038252602e815260200180611368602e913960400191505060405180910390fd5b600054610100900460ff16158015611088576000805460ff1961ff0019909116610100171660011790555b611090611115565b6110986111b5565b80156110aa576000805461ff00191690555b50565b8054156110f0576040805162461bcd60e51b815260206004820152600c60248201526b105b1c9958591e481a5b9a5d60a21b604482015290519081900360640190fd5b60016000818152918101602052604090912080546001600160a01b0319169091179055565b600054610100900460ff168061112e575061112e610f19565b8061113c575060005460ff16155b6111775760405162461bcd60e51b815260040180806020018281038252602e815260200180611368602e913960400191505060405180910390fd5b600054610100900460ff16158015611098576000805460ff1961ff00199091166101001716600117905580156110aa576000805461ff001916905550565b600054610100900460ff16806111ce57506111ce610f19565b806111dc575060005460ff16155b6112175760405162461bcd60e51b815260040180806020018281038252602e815260200180611368602e913960400191505060405180910390fd5b600054610100900460ff16158015611242576000805460ff1961ff0019909116610100171660011790555b600061124c610b6d565b603380546001600160a01b0319166001600160a01b038316908117909155604051919250906000907f8be0079c531659141344cd1fd0a4f28419497f9722a3daafe3b4186f6b6457e0908290a35080156110aa576000805461ff001916905550565b828054600181600116156101000203166002900490600052602060002090601f016020900481019282601f106112ef57805160ff191683800117855561131c565b8280016001018555821561131c579182015b8281111561131c578251825591602001919060010190611301565b5061132892915061132c565b5090565b5b80821115611328576000815560010161132d56fe4f776e61626c653a206e6577206f776e657220697320746865207a65726f2061646472657373496e697469616c697a61626c653a20636f6e747261637420697320616c726561647920696e697469616c697a65644f776e61626c653a2063616c6c6572206973206e6f7420746865206f776e6572a2646970667358221220ee7ddf7e7947980f01efe21279e07042303393dd4eb336dbe071096e338b29a864736f6c634300060c0033",
  "devdoc": {
    "kind": "dev",
    "methods": {
      "addAddresses(address[])": {
        "params": {
          "_addresses": "Array of contract addresses to be added"
        }
      },
      "beforeTokenMint(address,uint256,address,address)": {
        "params": {
          "amount": "The amount of controlledToken being minted",
          "controlledToken": "The controlledToken address being minted",
          "referrer": "The referrer address",
          "to": "The address being minted to"
        }
      },
      "beforeTokenTransfer(address,address,uint256,address)": {
        "params": {
          "amount": "The amount of controlledToken being transferred",
          "controlledToken": "The controlledToken address",
          "from": "The address being transferred from",
          "to": "The address being transferred to"
        }
      },
      "contains(address)": {
        "params": {
          "_addr": "The address to check"
        },
        "returns": {
          "_0": "True if the address is contained, false otherwise."
        }
      },
      "end()": {
        "returns": {
          "_0": "The sentinel address"
        }
      },
      "getAddresses()": {
        "returns": {
          "_0": "Array of contract addresses"
        }
      },
      "initialize(address)": {
        "params": {
          "_owner": "The owner address"
        }
      },
      "next(address)": {
        "params": {
          "current": "The current address"
        },
        "returns": {
          "_0": "Returns the next address in the list"
        }
      },
      "owner()": {
        "details": "Returns the address of the current owner."
      },
      "removeAddress(address,address)": {
        "params": {
          "_address": "The address to remove from the linked list. ",
          "_previousContract": "The address positionally located before the address that will be deleted. This may be the SENTINEL address if the list contains one contract address"
        }
      },
      "renounceOwnership()": {
        "details": "Leaves the contract without owner. It will not be possible to call `onlyOwner` functions anymore. Can only be called by the current owner. NOTE: Renouncing ownership will leave the contract without an owner, thereby removing any functionality that is only available to the owner."
      },
      "start()": {
        "returns": {
          "_0": "The address at the start of the list"
        }
      },
      "supportsInterface(bytes4)": {
        "details": "Returns true if this contract implements the interface defined by `interfaceId`. See the corresponding https://eips.ethereum.org/EIPS/eip-165#how-interfaces-are-identified[EIP section] to learn more about how these ids are created. This function call must use less than 30 000 gas."
      },
      "transferOwnership(address)": {
        "details": "Transfers ownership of the contract to a new account (`newOwner`). Can only be called by the current owner."
      }
    },
    "title": "MultiTokenFaucet is an ownable contract which holds a number of TokenFaucets",
    "version": 1
  },
  "userdoc": {
    "events": {
      "AddressAdded(address)": {
        "notice": "Emmitted when a contract has been added to the registry"
      },
      "AddressRemoved(address)": {
        "notice": "Emmitted when a contract has been removed to the registry"
      },
      "AllAddressesCleared()": {
        "notice": "Emitted when all the registry addresses are cleared"
      }
    },
    "kind": "user",
    "methods": {
      "addAddresses(address[])": {
        "notice": "Adds addresses to the linked list. Will revert if the address is already in the list.  Can only be called by the Registry owner."
      },
      "addressType()": {
        "notice": "Storage field for what type of contract this Registry is storing "
      },
      "beforeTokenMint(address,uint256,address,address)": {
        "notice": "Pass through the beforeTokenMint hook to all the registry TokenFaucets"
      },
      "beforeTokenTransfer(address,address,uint256,address)": {
        "notice": "Pass through the beforeTokenTransfer hook to all the registry TokenFaucets"
      },
      "clearAll()": {
        "notice": "Removes every address from the list"
      },
      "contains(address)": {
        "notice": "Determines whether the list contains the given address"
      },
      "end()": {
        "notice": "Exposes the end of the list"
      },
      "getAddresses()": {
        "notice": "Returns an array of all contract addresses in the linked list"
      },
      "initialize(address)": {
        "notice": "Initiaize the MultiTokenFaucet and Registry"
      },
      "next(address)": {
        "notice": "Exposes the internal next() iterator"
      },
      "removeAddress(address,address)": {
        "notice": "Removes an address from the linked list. Can only be called by the Registry owner."
      },
      "start()": {
        "notice": "Gives the address at the start of the list"
      }
    },
    "notice": "MultiTokenFaucet passes through the ControlledToken beforeTokenMint and beforeTokenTransfer hooks to each TokenFaucet in its registry",
    "version": 1
  },
  "storageLayout": {
    "storage": [
      {
        "astId": 1308,
        "contract": "contracts/MultiTokenFaucet.sol:MultiTokenFaucet",
        "label": "_initialized",
        "offset": 0,
        "slot": "0",
        "type": "t_bool"
      },
      {
        "astId": 1311,
        "contract": "contracts/MultiTokenFaucet.sol:MultiTokenFaucet",
        "label": "_initializing",
        "offset": 1,
        "slot": "0",
        "type": "t_bool"
      },
      {
        "astId": 2592,
        "contract": "contracts/MultiTokenFaucet.sol:MultiTokenFaucet",
        "label": "__gap",
        "offset": 0,
        "slot": "1",
        "type": "t_array(t_uint256)50_storage"
      },
      {
        "astId": 10,
        "contract": "contracts/MultiTokenFaucet.sol:MultiTokenFaucet",
        "label": "_owner",
        "offset": 0,
        "slot": "51",
        "type": "t_address"
      },
      {
        "astId": 129,
        "contract": "contracts/MultiTokenFaucet.sol:MultiTokenFaucet",
        "label": "__gap",
        "offset": 0,
        "slot": "52",
        "type": "t_array(t_uint256)49_storage"
      },
      {
        "astId": 10220,
        "contract": "contracts/MultiTokenFaucet.sol:MultiTokenFaucet",
        "label": "addressList",
        "offset": 0,
        "slot": "101",
        "type": "t_struct(Mapping)10415_storage"
      },
      {
        "astId": 10236,
        "contract": "contracts/MultiTokenFaucet.sol:MultiTokenFaucet",
        "label": "addressType",
        "offset": 0,
        "slot": "103",
        "type": "t_string_storage"
      }
    ],
    "types": {
      "t_address": {
        "encoding": "inplace",
        "label": "address",
        "numberOfBytes": "20"
      },
      "t_array(t_uint256)49_storage": {
        "base": "t_uint256",
        "encoding": "inplace",
        "label": "uint256[49]",
        "numberOfBytes": "1568"
      },
      "t_array(t_uint256)50_storage": {
        "base": "t_uint256",
        "encoding": "inplace",
        "label": "uint256[50]",
        "numberOfBytes": "1600"
      },
      "t_bool": {
        "encoding": "inplace",
        "label": "bool",
        "numberOfBytes": "1"
      },
      "t_mapping(t_address,t_address)": {
        "encoding": "mapping",
        "key": "t_address",
        "label": "mapping(address => address)",
        "numberOfBytes": "32",
        "value": "t_address"
      },
      "t_string_storage": {
        "encoding": "bytes",
        "label": "string",
        "numberOfBytes": "32"
      },
      "t_struct(Mapping)10415_storage": {
        "encoding": "inplace",
        "label": "struct MappedSinglyLinkedList.Mapping",
        "members": [
          {
            "astId": 10410,
            "contract": "contracts/MultiTokenFaucet.sol:MultiTokenFaucet",
            "label": "count",
            "offset": 0,
            "slot": "0",
            "type": "t_uint256"
          },
          {
            "astId": 10414,
            "contract": "contracts/MultiTokenFaucet.sol:MultiTokenFaucet",
            "label": "addressMap",
            "offset": 0,
            "slot": "1",
            "type": "t_mapping(t_address,t_address)"
          }
        ],
        "numberOfBytes": "64"
      },
      "t_uint256": {
        "encoding": "inplace",
        "label": "uint256",
        "numberOfBytes": "32"
      }
    }
  }
}