{
  "address": "0x5FbDB2315678afecb367f032d93F642f64180aa3",
  "abi": [
    {
      "inputs": [
        {
          "internalType": "address",
          "name": "_owner",
          "type": "address"
        }
      ],
      "stateMutability": "nonpayable",
      "type": "constructor"
    },
    {
      "anonymous": false,
      "inputs": [
        {
          "indexed": true,
          "internalType": "address",
          "name": "previousOwner",
          "type": "address"
        },
        {
          "indexed": true,
          "internalType": "address",
          "name": "newOwner",
          "type": "address"
        }
      ],
      "name": "OwnershipTransferred",
      "type": "event"
    },
    {
      "anonymous": false,
      "inputs": [
        {
          "indexed": true,
          "internalType": "contract AddressRegistry",
          "name": "registry",
          "type": "address"
        }
      ],
      "name": "TokenFaucetRegistryUpdated",
      "type": "event"
    },
    {
      "inputs": [
        {
          "internalType": "address[]",
          "name": "_faucets",
          "type": "address[]"
        }
      ],
      "name": "addTokenFaucets",
      "outputs": [],
      "stateMutability": "nonpayable",
      "type": "function"
    },
    {
      "inputs": [
        {
          "internalType": "address",
          "name": "to",
          "type": "address"
        },
        {
          "internalType": "uint256",
          "name": "amount",
          "type": "uint256"
        },
        {
          "internalType": "address",
          "name": "controlledToken",
          "type": "address"
        },
        {
          "internalType": "address",
          "name": "referrer",
          "type": "address"
        }
      ],
      "name": "beforeTokenMint",
      "outputs": [],
      "stateMutability": "nonpayable",
      "type": "function"
    },
    {
      "inputs": [
        {
          "internalType": "address",
          "name": "from",
          "type": "address"
        },
        {
          "internalType": "address",
          "name": "to",
          "type": "address"
        },
        {
          "internalType": "uint256",
          "name": "amount",
          "type": "uint256"
        },
        {
          "internalType": "address",
          "name": "controlledToken",
          "type": "address"
        }
      ],
      "name": "beforeTokenTransfer",
      "outputs": [],
      "stateMutability": "nonpayable",
      "type": "function"
    },
    {
      "inputs": [],
      "name": "owner",
      "outputs": [
        {
          "internalType": "address",
          "name": "",
          "type": "address"
        }
      ],
      "stateMutability": "view",
      "type": "function"
    },
    {
      "inputs": [
        {
          "internalType": "contract TokenFaucet",
          "name": "_previousFaucet",
          "type": "address"
        },
        {
          "internalType": "contract TokenFaucet",
          "name": "_faucet",
          "type": "address"
        }
      ],
      "name": "removeTokenFaucet",
      "outputs": [],
      "stateMutability": "nonpayable",
      "type": "function"
    },
    {
      "inputs": [],
      "name": "renounceOwnership",
      "outputs": [],
      "stateMutability": "nonpayable",
      "type": "function"
    },
    {
      "inputs": [
        {
          "internalType": "contract AddressRegistry",
          "name": "_registry",
          "type": "address"
        }
      ],
      "name": "setTokenFaucetsRegistry",
      "outputs": [],
      "stateMutability": "nonpayable",
      "type": "function"
    },
    {
      "inputs": [
        {
          "internalType": "bytes4",
          "name": "interfaceId",
          "type": "bytes4"
        }
      ],
      "name": "supportsInterface",
      "outputs": [
        {
          "internalType": "bool",
          "name": "",
          "type": "bool"
        }
      ],
      "stateMutability": "view",
      "type": "function"
    },
    {
      "inputs": [],
      "name": "tokenFaucets",
      "outputs": [
        {
          "internalType": "contract AddressRegistry",
          "name": "",
          "type": "address"
        }
      ],
      "stateMutability": "view",
      "type": "function"
    },
    {
      "inputs": [
        {
          "internalType": "address",
          "name": "newOwner",
          "type": "address"
        }
      ],
      "name": "transferOwnership",
      "outputs": [],
      "stateMutability": "nonpayable",
      "type": "function"
    }
  ],
  "transactionHash": "0x1ec44e22408b40ea0fb57482e03aa1637ac864ec926d32e0dd531b7f228b88ef",
  "args": [
    "0xf39Fd6e51aad88F6F4ce6aB8827279cffFb92266"
  ],
  "solcInputHash": "de2ba207b94e1399fbe4351d1f41b26d",
  "bytecode": "0x608060405234801561001057600080fd5b50604051611e4a380380611e4a8339818101604052602081101561003357600080fd5b5051600061003f610102565b600080546001600160a01b0319166001600160a01b038316908117825560405192935091600080516020611e2a833981519152908290a3503060405161008490610217565b6001600160a01b0390911660208201526040808252600c818301526b546f6b656e4661756365747360a01b60608301525190819003608001906000f0801580156100d2573d6000803e3d6000fd5b50600180546001600160a01b0319166001600160a01b03929092169190911790556100fc81610106565b50610224565b3390565b61010e610102565b6001600160a01b031661011f610208565b6001600160a01b03161461017a576040805162461bcd60e51b815260206004820181905260248201527f4f776e61626c653a2063616c6c6572206973206e6f7420746865206f776e6572604482015290519081900360640190fd5b6001600160a01b0381166101bf5760405162461bcd60e51b8152600401808060200182810382526026815260200180611e046026913960400191505060405180910390fd5b600080546040516001600160a01b0380851693921691600080516020611e2a83398151915291a3600080546001600160a01b0319166001600160a01b0392909216919091179055565b6000546001600160a01b031690565b6110de80610d2683390190565b610af3806102336000396000f3fe608060405234801561001057600080fd5b506004361061009e5760003560e01c8063a42ef1d911610066578063a42ef1d914610176578063b2210957146101e6578063e3ef1b5c14610222578063ebe87e921461022a578063f2fde38b146102505761009e565b806301ffc9a7146100a35780634d7f3db0146100de57806370287cc61461011c578063715018a61461014a5780638da5cb5b14610152575b600080fd5b6100ca600480360360208110156100b957600080fd5b50356001600160e01b031916610276565b604080519115158252519081900360200190f35b61011a600480360360808110156100f457600080fd5b506001600160a01b038135811691602081013591604082013581169160600135166102b0565b005b61011a6004803603604081101561013257600080fd5b506001600160a01b0381358116916020013516610484565b61011a610550565b61015a6105fc565b604080516001600160a01b039092168252519081900360200190f35b61011a6004803603602081101561018c57600080fd5b8101906020810181356401000000008111156101a757600080fd5b8201836020820111156101b957600080fd5b803590602001918460208302840111640100000000831117156101db57600080fd5b50909250905061060b565b61011a600480360360808110156101fc57600080fd5b506001600160a01b038135811691602081013582169160408201359160600135166106ea565b61015a6108b6565b61011a6004803603602081101561024057600080fd5b50356001600160a01b03166108c5565b61011a6004803603602081101561026657600080fd5b50356001600160a01b0316610971565b60006001600160e01b031982166301ffc9a760e01b14806102aa57506001600160e01b03198216600162a1cb1960e01b0319145b92915050565b600154604080516351cfd60960e11b815290516060926001600160a01b03169163a39fac12916004808301926000929190829003018186803b1580156102f557600080fd5b505afa158015610309573d6000803e3d6000fd5b505050506040513d6000823e601f3d908101601f19168201604052602081101561033257600080fd5b810190808051604051939291908464010000000082111561035257600080fd5b90830190602082018581111561036757600080fd5b825186602082028301116401000000008211171561038457600080fd5b82525081516020918201928201910280838360005b838110156103b1578181015183820152602001610399565b50505050905001604052505050905060005b815181101561047c578181815181106103d857fe5b60200260200101516001600160a01b0316634d7f3db0878787876040518563ffffffff1660e01b815260040180856001600160a01b03168152602001848152602001836001600160a01b03168152602001826001600160a01b03168152602001945050505050600060405180830381600087803b15801561045857600080fd5b505af115801561046c573d6000803e3d6000fd5b5050600190920191506103c39050565b505050505050565b61048c610a73565b6001600160a01b031661049d6105fc565b6001600160a01b0316146104e6576040805162461bcd60e51b81526020600482018190526024820152600080516020610a9e833981519152604482015290519081900360640190fd5b60015460408051635b7d60ad60e11b81526001600160a01b03858116600483015284811660248301529151919092169163b6fac15a91604480830192600092919082900301818387803b15801561053c57600080fd5b505af115801561047c573d6000803e3d6000fd5b610558610a73565b6001600160a01b03166105696105fc565b6001600160a01b0316146105b2576040805162461bcd60e51b81526020600482018190526024820152600080516020610a9e833981519152604482015290519081900360640190fd5b600080546040516001600160a01b03909116907f8be0079c531659141344cd1fd0a4f28419497f9722a3daafe3b4186f6b6457e0908390a3600080546001600160a01b0319169055565b6000546001600160a01b031690565b610613610a73565b6001600160a01b03166106246105fc565b6001600160a01b03161461066d576040805162461bcd60e51b81526020600482018190526024820152600080516020610a9e833981519152604482015290519081900360640190fd5b600154604051630d8a1cc760e21b8152602060048201818152602483018590526001600160a01b0390931692633628731c92869286929182916044909101908590850280828437600081840152601f19601f8201169050808301925050509350505050600060405180830381600087803b15801561053c57600080fd5b600154604080516351cfd60960e11b815290516060926001600160a01b03169163a39fac12916004808301926000929190829003018186803b15801561072f57600080fd5b505afa158015610743573d6000803e3d6000fd5b505050506040513d6000823e601f3d908101601f19168201604052602081101561076c57600080fd5b810190808051604051939291908464010000000082111561078c57600080fd5b9083019060208201858111156107a157600080fd5b82518660208202830111640100000000821117156107be57600080fd5b82525081516020918201928201910280838360005b838110156107eb5781810151838201526020016107d3565b50505050905001604052505050905060005b815181101561047c5781818151811061081257fe5b60200260200101516001600160a01b031663b2210957878787876040518563ffffffff1660e01b815260040180856001600160a01b03168152602001846001600160a01b03168152602001838152602001826001600160a01b03168152602001945050505050600060405180830381600087803b15801561089257600080fd5b505af11580156108a6573d6000803e3d6000fd5b5050600190920191506107fd9050565b6001546001600160a01b031681565b6108cd610a73565b6001600160a01b03166108de6105fc565b6001600160a01b031614610927576040805162461bcd60e51b81526020600482018190526024820152600080516020610a9e833981519152604482015290519081900360640190fd5b600180546001600160a01b0319166001600160a01b0383169081179091556040517fbdb98a4f65d2de4581b603474684b8dc41ec263715640da7140ac53593c0ddd190600090a250565b610979610a73565b6001600160a01b031661098a6105fc565b6001600160a01b0316146109d3576040805162461bcd60e51b81526020600482018190526024820152600080516020610a9e833981519152604482015290519081900360640190fd5b6001600160a01b038116610a185760405162461bcd60e51b8152600401808060200182810382526026815260200180610a786026913960400191505060405180910390fd5b600080546040516001600160a01b03808516939216917f8be0079c531659141344cd1fd0a4f28419497f9722a3daafe3b4186f6b6457e091a3600080546001600160a01b0319166001600160a01b0392909216919091179055565b339056fe4f776e61626c653a206e6577206f776e657220697320746865207a65726f20616464726573734f776e61626c653a2063616c6c6572206973206e6f7420746865206f776e6572a2646970667358221220f54ff170adca665cd30e17926c2e64eebc8d55efbbe4e5ba7e111bd5a19063e164736f6c634300060c003360806040523480156200001157600080fd5b50604051620010de380380620010de833981810160405260408110156200003757600080fd5b81019080805160405193929190846401000000008211156200005857600080fd5b9083019060208201858111156200006e57600080fd5b82516401000000008111828201881017156200008957600080fd5b82525081516020918201929091019080838360005b83811015620000b85781810151838201526020016200009e565b50505050905090810190601f168015620000e65780820380516001836020036101000a031916815260200191505b5060405260200151915060009050620000fe62000177565b600080546001600160a01b0319166001600160a01b038316908117825560405192935091600080516020620010be833981519152908290a35081516200014c906003906020850190620002fd565b506200016460016200017b60201b620007c31760201c565b6200016f81620001e4565b505062000399565b3390565b805415620001bf576040805162461bcd60e51b815260206004820152600c60248201526b105b1c9958591e481a5b9a5d60a21b604482015290519081900360640190fd5b60016000818152918101602052604090912080546001600160a01b0319169091179055565b620001ee62000177565b6001600160a01b031662000201620002ee565b6001600160a01b0316146200025d576040805162461bcd60e51b815260206004820181905260248201527f4f776e61626c653a2063616c6c6572206973206e6f7420746865206f776e6572604482015290519081900360640190fd5b6001600160a01b038116620002a45760405162461bcd60e51b8152600401808060200182810382526026815260200180620010986026913960400191505060405180910390fd5b600080546040516001600160a01b0380851693921691600080516020620010be83398151915291a3600080546001600160a01b0319166001600160a01b0392909216919091179055565b6000546001600160a01b031690565b828054600181600116156101000203166002900490600052602060002090601f016020900481019282601f106200034057805160ff191683800117855562000370565b8280016001018555821562000370579182015b828111156200037057825182559160200191906001019062000353565b506200037e92915062000382565b5090565b5b808211156200037e576000815560010162000383565b610cef80620003a96000396000f3fe608060405234801561001057600080fd5b50600436106100b45760003560e01c8063ab73e31611610071578063ab73e31614610266578063b6fac15a1461028c578063be9a6555146102ba578063ebb689a1146102c2578063efbe1c1c146102ca578063f2fde38b146102d2576100b4565b80633628731c146100b9578063506cd1071461012b5780635dbe47e8146101a8578063715018a6146101e25780638da5cb5b146101ea578063a39fac121461020e575b600080fd5b610129600480360360208110156100cf57600080fd5b8101906020810181356401000000008111156100ea57600080fd5b8201836020820111156100fc57600080fd5b8035906020019184602083028401116401000000008311171561011e57600080fd5b5090925090506102f8565b005b6101336103f2565b6040805160208082528351818301528351919283929083019185019080838360005b8381101561016d578181015183820152602001610155565b50505050905090810190601f16801561019a5780820380516001836020036101000a031916815260200191505b509250505060405180910390f35b6101ce600480360360208110156101be57600080fd5b50356001600160a01b0316610480565b604080519115158252519081900360200190f35b610129610493565b6101f261053f565b604080516001600160a01b039092168252519081900360200190f35b61021661054e565b60408051602080825283518183015283519192839290830191858101910280838360005b8381101561025257818101518382015260200161023a565b505050509050019250505060405180910390f35b6101f26004803603602081101561027c57600080fd5b50356001600160a01b031661055f565b610129600480360360408110156102a257600080fd5b506001600160a01b038135811691602001351661056c565b6101f2610612565b61012961061e565b6101f26106b5565b610129600480360360208110156102e857600080fd5b50356001600160a01b03166106c1565b61030061082b565b6001600160a01b031661031161053f565b6001600160a01b03161461035a576040805162461bcd60e51b81526020600482018190526024820152600080516020610c9a833981519152604482015290519081900360640190fd5b60005b818110156103ed5761039483838381811061037457fe5b905060200201356001600160a01b0316600161082f90919063ffffffff16565b8282828181106103a057fe5b905060200201356001600160a01b03166001600160a01b03167fa226db3f664042183ee0281230bba26cbf7b5057e50aee7f25a175ff45ce4d7f60405160405180910390a260010161035d565b505050565b6003805460408051602060026001851615610100026000190190941693909304601f810184900484028201840190925281815292918301828280156104785780601f1061044d57610100808354040283529160200191610478565b820191906000526020600020905b81548152906001019060200180831161045b57829003601f168201915b505050505081565b600061048d600183610943565b92915050565b61049b61082b565b6001600160a01b03166104ac61053f565b6001600160a01b0316146104f5576040805162461bcd60e51b81526020600482018190526024820152600080516020610c9a833981519152604482015290519081900360640190fd5b600080546040516001600160a01b03909116907f8be0079c531659141344cd1fd0a4f28419497f9722a3daafe3b4186f6b6457e0908390a3600080546001600160a01b0319169055565b6000546001600160a01b031690565b606061055a6001610995565b905090565b600061048d600183610a75565b61057461082b565b6001600160a01b031661058561053f565b6001600160a01b0316146105ce576040805162461bcd60e51b81526020600482018190526024820152600080516020610c9a833981519152604482015290519081900360640190fd5b6105da60018383610a98565b6040516001600160a01b038216907f24a12366c02e13fe4a9e03d86a8952e85bb74a456c16e4a18b6d8295700b74bb90600090a25050565b600061055a6001610bb4565b61062661082b565b6001600160a01b031661063761053f565b6001600160a01b031614610680576040805162461bcd60e51b81526020600482018190526024820152600080516020610c9a833981519152604482015290519081900360640190fd5b61068a6001610bd1565b6040517fd2246837fc932fb127be794938f83245f3a8fc7fa8be0abfcddde9b07875d02090600090a1565b600061055a6001610c6d565b6106c961082b565b6001600160a01b03166106da61053f565b6001600160a01b031614610723576040805162461bcd60e51b81526020600482018190526024820152600080516020610c9a833981519152604482015290519081900360640190fd5b6001600160a01b0381166107685760405162461bcd60e51b8152600401808060200182810382526026815260200180610c746026913960400191505060405180910390fd5b600080546040516001600160a01b03808516939216917f8be0079c531659141344cd1fd0a4f28419497f9722a3daafe3b4186f6b6457e091a3600080546001600160a01b0319166001600160a01b0392909216919091179055565b805415610806576040805162461bcd60e51b815260206004820152600c60248201526b105b1c9958591e481a5b9a5d60a21b604482015290519081900360640190fd5b60016000818152918101602052604090912080546001600160a01b0319169091179055565b3390565b6001600160a01b03811660011480159061085157506001600160a01b03811615155b610894576040805162461bcd60e51b815260206004820152600f60248201526e496e76616c6964206164647265737360881b604482015290519081900360640190fd5b6001600160a01b03818116600090815260018401602052604090205416156108f3576040805162461bcd60e51b815260206004820152600d60248201526c105b1c9958591e481859191959609a1b604482015290519081900360640190fd5b60016000818152838201602052604080822080546001600160a01b039586168085529284208054969091166001600160a01b03199687161790559183905281549093169092179091558154019055565b60006001600160a01b03821660011480159061096757506001600160a01b03821615155b801561098e57506001600160a01b0382811660009081526001850160205260409020541615155b9392505050565b606080826000015467ffffffffffffffff811180156109b357600080fd5b506040519080825280602002602001820160405280156109dd578160200160208202803683370190505b50600160008181529085016020526040812054919250906001600160a01b03165b6001600160a01b03811615801590610a2057506001600160a01b038116600114155b15610a6c5780838381518110610a3257fe5b6001600160a01b039283166020918202929092018101919091529181166000908152600180880190935260409020549290910191166109fe565b50909392505050565b6001600160a01b0380821660009081526001840160205260409020541692915050565b6001600160a01b038116600114801590610aba57506001600160a01b03811615155b610afd576040805162461bcd60e51b815260206004820152600f60248201526e496e76616c6964206164647265737360881b604482015290519081900360640190fd5b6001600160a01b038281166000908152600185016020526040902054811690821614610b66576040805162461bcd60e51b8152602060048201526013602482015272496e76616c696420707265764164647265737360681b604482015290519081900360640190fd5b6001600160a01b039081166000818152600185016020526040808220805495851683529082208054959094166001600160a01b03199586161790935552805490911690558054600019019055565b60016000818152910160205260409020546001600160a01b031690565b6001600081815290820160205260409020546001600160a01b03165b6001600160a01b03811615801590610c0f57506001600160a01b038116600114155b15610c45576001600160a01b039081166000908152600183016020526040902080546001600160a01b0319811690915516610bed565b50600160008181528282016020526040812080546001600160a01b0319169092179091559055565b5060019056fe4f776e61626c653a206e6577206f776e657220697320746865207a65726f20616464726573734f776e61626c653a2063616c6c6572206973206e6f7420746865206f776e6572a26469706673582212204a6c4b48abb17c8af1ad6586fb8af2939a9543e3ad48370abb45c0f46d4740c264736f6c634300060c00334f776e61626c653a206e6577206f776e657220697320746865207a65726f20616464726573738be0079c531659141344cd1fd0a4f28419497f9722a3daafe3b4186f6b6457e04f776e61626c653a206e6577206f776e657220697320746865207a65726f20616464726573738be0079c531659141344cd1fd0a4f28419497f9722a3daafe3b4186f6b6457e0",
  "devdoc": {
    "kind": "dev",
    "methods": {
      "addTokenFaucets(address[])": {
        "params": {
          "_faucets": "An array of TokenFaucets to be added to the tokenFaucets registry"
        }
      },
      "beforeTokenMint(address,uint256,address,address)": {
        "params": {
          "amount": "The amount of controlledToken being minted",
          "controlledToken": "The controlledToken address being minted",
          "referrer": "The referrer address",
          "to": "The address being minted to"
        }
      },
      "beforeTokenTransfer(address,address,uint256,address)": {
        "params": {
          "amount": "The amount of controlledToken being transferred",
          "controlledToken": "The controlledToken address",
          "from": "The address being transferred from",
          "to": "The address being transferred to"
        }
      },
      "owner()": {
        "details": "Returns the address of the current owner."
      },
      "removeTokenFaucet(address,address)": {
        "params": {
          "_faucet": "The faucet address to be removed",
          "_previousFaucet": "The faucet address BEFORE the one being removed"
        }
      },
      "renounceOwnership()": {
        "details": "Leaves the contract without owner. It will not be possible to call `onlyOwner` functions anymore. Can only be called by the current owner. NOTE: Renouncing ownership will leave the contract without an owner, thereby removing any functionality that is only available to the owner."
      },
      "setTokenFaucetsRegistry(address)": {
        "params": {
          "_registry": "The registry of token faucets associated with this MultiTokenFaucet"
        }
      },
      "supportsInterface(bytes4)": {
        "details": "Returns true if this contract implements the interface defined by `interfaceId`. See the corresponding https://eips.ethereum.org/EIPS/eip-165#how-interfaces-are-identified[EIP section] to learn more about how these ids are created. This function call must use less than 30 000 gas."
      },
      "transferOwnership(address)": {
        "details": "Transfers ownership of the contract to a new account (`newOwner`). Can only be called by the current owner."
      }
    },
    "title": "MultiTokenFaucet is an ownable contract which holds a number of TokenFaucets",
    "version": 1
  },
  "userdoc": {
    "events": {
      "TokenFaucetRegistryUpdated(address)": {
        "notice": "Update the Faucet Registry"
      }
    },
    "kind": "user",
    "methods": {
      "addTokenFaucets(address[])": {
        "notice": "Add a TokenFaucet to the registry"
      },
      "beforeTokenMint(address,uint256,address,address)": {
        "notice": "Pass through the beforeTokenMint hook to all the registry TokenFaucets"
      },
      "beforeTokenTransfer(address,address,uint256,address)": {
        "notice": "Pass through the beforeTokenTransfer hook to all the registry TokenFaucets"
      },
      "removeTokenFaucet(address,address)": {
        "notice": "Remove a TokenFaucet from the registry"
      },
      "setTokenFaucetsRegistry(address)": {
        "notice": "Update the Faucet Registry"
      },
      "tokenFaucets()": {
        "notice": "registry of TokenFaucet addresses associated with this MultiTokenFacuet"
      }
    },
    "notice": "MultiTokenFaucet passes through the ControlledToken beforeTokenMint and beforeTokenTransfer hooks to each TokenFaucet in its registry",
    "version": 1
  },
  "storageLayout": {
    "storage": [
      {
        "astId": 1341,
        "contract": "contracts/MultiTokenFaucet.sol:MultiTokenFaucet",
        "label": "_owner",
        "offset": 0,
        "slot": "0",
        "type": "t_address"
      },
      {
        "astId": 2474,
        "contract": "contracts/MultiTokenFaucet.sol:MultiTokenFaucet",
        "label": "tokenFaucets",
        "offset": 0,
        "slot": "1",
        "type": "t_contract(AddressRegistry)2843"
      }
    ],
    "types": {
      "t_address": {
        "encoding": "inplace",
        "label": "address",
        "numberOfBytes": "20"
      },
      "t_contract(AddressRegistry)2843": {
        "encoding": "inplace",
        "label": "contract AddressRegistry",
        "numberOfBytes": "20"
      }
    }
  }
}